{
  "contractName": "Bet",
  "abi": [
    {
      "inputs": [
        {
          "internalType": "address[]",
          "name": "_players",
          "type": "address[]"
        },
        {
          "internalType": "uint256",
          "name": "_numPositions",
          "type": "uint256"
        }
      ],
      "stateMutability": "payable",
      "type": "constructor",
      "payable": true
    },
    {
      "inputs": [],
      "name": "numPositions",
      "outputs": [
        {
          "internalType": "uint256",
          "name": "",
          "type": "uint256"
        }
      ],
      "stateMutability": "view",
      "type": "function",
      "constant": true
    },
    {
      "inputs": [
        {
          "internalType": "uint256",
          "name": "",
          "type": "uint256"
        }
      ],
      "name": "players",
      "outputs": [
        {
          "internalType": "address",
          "name": "",
          "type": "address"
        }
      ],
      "stateMutability": "view",
      "type": "function",
      "constant": true
    },
    {
      "inputs": [],
      "name": "Deposit",
      "outputs": [],
      "stateMutability": "payable",
      "type": "function",
      "payable": true
    },
    {
      "inputs": [
        {
          "internalType": "uint256",
          "name": "_position",
          "type": "uint256"
        }
      ],
      "name": "makeBet",
      "outputs": [],
      "stateMutability": "nonpayable",
      "type": "function"
    },
    {
      "inputs": [
        {
          "internalType": "uint256",
          "name": "_rightPosition",
          "type": "uint256"
        }
      ],
      "name": "ethDistribution",
      "outputs": [],
      "stateMutability": "payable",
      "type": "function",
      "payable": true
    }
  ],
  "bytecode": "0x6080604052604051620013fc380380620013fc8339818101604052810190620000299190620004f9565b600082511162000070576040517f08c379a00000000000000000000000000000000000000000000000000000000081526004016200006790620005c0565b60405180910390fd5b60008111801562000082575081518111155b620000c4576040517f08c379a0000000000000000000000000000000000000000000000000000000008152600401620000bb9062000632565b60405180910390fd5b60005b8251811015620002c7576000838281518110620000e957620000e862000654565b5b60200260200101519050600073ffffffffffffffffffffffffffffffffffffffff168173ffffffffffffffffffffffffffffffffffffffff16141562000166576040517f08c379a00000000000000000000000000000000000000000000000000000000081526004016200015d90620006d3565b60405180910390fd5b600160008273ffffffffffffffffffffffffffffffffffffffff1673ffffffffffffffffffffffffffffffffffffffff16815260200190815260200160002060009054906101000a900460ff1615620001f6576040517f08c379a0000000000000000000000000000000000000000000000000000000008152600401620001ed9062000745565b60405180910390fd5b60018060008373ffffffffffffffffffffffffffffffffffffffff1673ffffffffffffffffffffffffffffffffffffffff16815260200190815260200160002060006101000a81548160ff0219169083151502179055506000819080600181540180825580915050600190039060005260206000200160009091909190916101000a81548173ffffffffffffffffffffffffffffffffffffffff021916908373ffffffffffffffffffffffffffffffffffffffff160217905550508080620002be9062000796565b915050620000c7565b505050620007e4565b6000604051905090565b600080fd5b600080fd5b600080fd5b6000601f19601f8301169050919050565b7f4e487b7100000000000000000000000000000000000000000000000000000000600052604160045260246000fd5b6200033482620002e9565b810181811067ffffffffffffffff82111715620003565762000355620002fa565b5b80604052505050565b60006200036b620002d0565b905062000379828262000329565b919050565b600067ffffffffffffffff8211156200039c576200039b620002fa565b5b602082029050602081019050919050565b600080fd5b600073ffffffffffffffffffffffffffffffffffffffff82169050919050565b6000620003df82620003b2565b9050919050565b620003f181620003d2565b8114620003fd57600080fd5b50565b6000815190506200041181620003e6565b92915050565b60006200042e62000428846200037e565b6200035f565b90508083825260208201905060208402830185811115620004545762000453620003ad565b5b835b818110156200048157806200046c888262000400565b84526020840193505060208101905062000456565b5050509392505050565b600082601f830112620004a357620004a2620002e4565b5b8151620004b584826020860162000417565b91505092915050565b6000819050919050565b620004d381620004be565b8114620004df57600080fd5b50565b600081519050620004f381620004c8565b92915050565b60008060408385031215620005135762000512620002da565b5b600083015167ffffffffffffffff811115620005345762000533620002df565b5b62000542858286016200048b565b92505060206200055585828601620004e2565b9150509250929050565b600082825260208201905092915050565b7f496e76616c696420706c61796572206164647265737300000000000000000000600082015250565b6000620005a86016836200055f565b9150620005b58262000570565b602082019050919050565b60006020820190508181036000830152620005db8162000599565b9050919050565b7f496e76616c6964206e756d626572206f6620706f736974696f6e730000000000600082015250565b60006200061a601b836200055f565b91506200062782620005e2565b602082019050919050565b600060208201905081810360008301526200064d816200060b565b9050919050565b7f4e487b7100000000000000000000000000000000000000000000000000000000600052603260045260246000fd5b7f496e76616c696420706c61796572000000000000000000000000000000000000600082015250565b6000620006bb600e836200055f565b9150620006c88262000683565b602082019050919050565b60006020820190508181036000830152620006ee81620006ac565b9050919050565b7f506c61796572206e6f7420756e69717565000000000000000000000000000000600082015250565b60006200072d6011836200055f565b91506200073a82620006f5565b602082019050919050565b6000602082019050818103600083015262000760816200071e565b9050919050565b7f4e487b7100000000000000000000000000000000000000000000000000000000600052601160045260246000fd5b6000620007a382620004be565b91507fffffffffffffffffffffffffffffffffffffffffffffffffffffffffffffffff821415620007d957620007d862000767565b5b600182019050919050565b610c0880620007f46000396000f3fe60806040526004361061004a5760003560e01c806308f2c4371461004f5780635e71823b1461006b578063718cc76914610096578063ed21248c146100bf578063f71d96cb146100c9575b600080fd5b610069600480360381019061006491906107fd565b610106565b005b34801561007757600080fd5b506100806104cc565b60405161008d9190610839565b60405180910390f35b3480156100a257600080fd5b506100bd60048036038101906100b891906107fd565b6104d2565b005b6100c761066c565b005b3480156100d557600080fd5b506100f060048036038101906100eb91906107fd565b610783565b6040516100fd9190610895565b60405180910390f35b60005b6000805490508110156102705760006004600080848154811061012f5761012e6108b0565b5b9060005260206000200160009054906101000a900473ffffffffffffffffffffffffffffffffffffffff1673ffffffffffffffffffffffffffffffffffffffff1673ffffffffffffffffffffffffffffffffffffffff1681526020019081526020016000205411801561021e57506000600560008084815481106101b6576101b56108b0565b5b9060005260206000200160009054906101000a900473ffffffffffffffffffffffffffffffffffffffff1673ffffffffffffffffffffffffffffffffffffffff1673ffffffffffffffffffffffffffffffffffffffff16815260200190815260200160002054115b61025d576040517f08c379a00000000000000000000000000000000000000000000000000000000081526004016102549061093c565b60405180910390fd5b80806102689061098b565b915050610109565b5060006003600083815260200190815260200160002080549050905060008080600090505b6002548110156104c55784600460008084815481106102b7576102b66108b0565b5b9060005260206000200160009054906101000a900473ffffffffffffffffffffffffffffffffffffffff1673ffffffffffffffffffffffffffffffffffffffff1673ffffffffffffffffffffffffffffffffffffffff168152602001908152602001600020541415610328576104b2565b60005b848110156104b057600360008781526020019081526020016000208181548110610358576103576108b0565b5b9060005260206000200160009054906101000a900473ffffffffffffffffffffffffffffffffffffffff1692508273ffffffffffffffffffffffffffffffffffffffff166108fc85600560008773ffffffffffffffffffffffffffffffffffffffff1673ffffffffffffffffffffffffffffffffffffffff16815260200190815260200160002054600560008088815481106103f7576103f66108b0565b5b9060005260206000200160009054906101000a900473ffffffffffffffffffffffffffffffffffffffff1673ffffffffffffffffffffffffffffffffffffffff1673ffffffffffffffffffffffffffffffffffffffff1681526020019081526020016000205461046791906109d4565b6104719190610a5d565b9081150290604051600060405180830381858888f1935050505015801561049c573d6000803e3d6000fd5b5080806104a89061098b565b91505061032b565b505b80806104bd9061098b565b915050610295565b5050505050565b60025481565b600160003373ffffffffffffffffffffffffffffffffffffffff1673ffffffffffffffffffffffffffffffffffffffff16815260200190815260200160002060009054906101000a900460ff1661055e576040517f08c379a000000000000000000000000000000000000000000000000000000000815260040161055590610ada565b60405180910390fd5b8060025481111580156105715750600081115b6105b0576040517f08c379a00000000000000000000000000000000000000000000000000000000081526004016105a790610b46565b60405180910390fd5b60036000838152602001908152602001600020339080600181540180825580915050600190039060005260206000200160009091909190916101000a81548173ffffffffffffffffffffffffffffffffffffffff021916908373ffffffffffffffffffffffffffffffffffffffff16021790555081600460003373ffffffffffffffffffffffffffffffffffffffff1673ffffffffffffffffffffffffffffffffffffffff168152602001908152602001600020819055505050565b600160003373ffffffffffffffffffffffffffffffffffffffff1673ffffffffffffffffffffffffffffffffffffffff16815260200190815260200160002060009054906101000a900460ff166106f8576040517f08c379a00000000000000000000000000000000000000000000000000000000081526004016106ef90610ada565b60405180910390fd5b344781111561073c576040517f08c379a000000000000000000000000000000000000000000000000000000000815260040161073390610bb2565b60405180910390fd5b34600560003373ffffffffffffffffffffffffffffffffffffffff1673ffffffffffffffffffffffffffffffffffffffff1681526020019081526020016000208190555050565b6000818154811061079357600080fd5b906000526020600020016000915054906101000a900473ffffffffffffffffffffffffffffffffffffffff1681565b600080fd5b6000819050919050565b6107da816107c7565b81146107e557600080fd5b50565b6000813590506107f7816107d1565b92915050565b600060208284031215610813576108126107c2565b5b6000610821848285016107e8565b91505092915050565b610833816107c7565b82525050565b600060208201905061084e600083018461082a565b92915050565b600073ffffffffffffffffffffffffffffffffffffffff82169050919050565b600061087f82610854565b9050919050565b61088f81610874565b82525050565b60006020820190506108aa6000830184610886565b92915050565b7f4e487b7100000000000000000000000000000000000000000000000000000000600052603260045260246000fd5b600082825260208201905092915050565b7f416c6c20706c61796572206d757374206d616b65206265747300000000000000600082015250565b60006109266019836108df565b9150610931826108f0565b602082019050919050565b6000602082019050818103600083015261095581610919565b9050919050565b7f4e487b7100000000000000000000000000000000000000000000000000000000600052601160045260246000fd5b6000610996826107c7565b91507fffffffffffffffffffffffffffffffffffffffffffffffffffffffffffffffff8214156109c9576109c861095c565b5b600182019050919050565b60006109df826107c7565b91506109ea836107c7565b9250817fffffffffffffffffffffffffffffffffffffffffffffffffffffffffffffffff0483118215151615610a2357610a2261095c565b5b828202905092915050565b7f4e487b7100000000000000000000000000000000000000000000000000000000600052601260045260246000fd5b6000610a68826107c7565b9150610a73836107c7565b925082610a8357610a82610a2e565b5b828204905092915050565b7f706c6179657220646f6573206e6f742065786973740000000000000000000000600082015250565b6000610ac46015836108df565b9150610acf82610a8e565b602082019050919050565b60006020820190508181036000830152610af381610ab7565b9050919050565b7f496e76616c696420706f736974696f6e00000000000000000000000000000000600082015250565b6000610b306010836108df565b9150610b3b82610afa565b602082019050919050565b60006020820190508181036000830152610b5f81610b23565b9050919050565b7f4e6f7420656e6f75676820657468000000000000000000000000000000000000600082015250565b6000610b9c600e836108df565b9150610ba782610b66565b602082019050919050565b60006020820190508181036000830152610bcb81610b8f565b905091905056fea2646970667358221220d6d68591d69c9766d3c8d39760b6c7f57a57656ab772dc112ae86e8b3672877964736f6c634300080a0033",
  "immutableReferences": {},
  "source": "// SPDX-License-Identifier: MIT\npragma solidity ^0.8.3;\n\ncontract Bet{\n\n  address[] public players;\n  mapping(address => bool) isPlayer;\n  uint public numPositions;\n\n  mapping(uint => address payable[]) addrPosition;\n  mapping(address => uint) posPlayer;\n  mapping(address => uint) valuePlayer;\n\n  constructor(address[] memory _players, uint _numPositions) public payable {\n    require(_players.length > 0, \"Invalid player address\");\n    require(_numPositions > 0 && _numPositions <= _players.length, \"Invalid number of positions\");\n\n    for (uint i = 0; i < _players.length; i++){\n      address player = _players[i];\n      require(player != address(0), \"Invalid player\");\n      require(!isPlayer[player], \"Player not unique\");\n      isPlayer[player] = true;\n      players.push(player);\n    }\n  }\n  \n  modifier playerExists() {\n    require(isPlayer[msg.sender], \"player does not exist\");\n    _;\n  }\n\n  modifier playerPayable(uint _value){\n    require(_value <= address(this).balance, \"Not enough eth\" );\n    _;\n  }\n\n  function Deposit() \n  playerExists()\n  playerPayable(msg.value)\n  public payable{\n    valuePlayer[msg.sender] = msg.value;\n  }\n\n  modifier positionExists(uint _position){\n    require(_position <= numPositions && _position > 0, \"Invalid position\");\n    _;\n  }\n\n  function makeBet(uint _position)\n  playerExists()\n  positionExists(_position)\n  public\n  {\n    addrPosition[_position].push(payable(msg.sender));\n    posPlayer[msg.sender] = _position;\n  }\n\n  modifier isBetsMaked(){\n    for (uint i = 0; i < players.length; i++){\n      require(posPlayer[players[i]] > 0 && valuePlayer[players[i]] > 0, \"All player must make bets\");\n    }\n    _;\n  }\n\n  function ethDistribution(uint _rightPosition)\n  isBetsMaked()\n  payable external \n  {\n    uint numWinners = addrPosition[_rightPosition].length;\n    uint sum_value = 0;\n    address payable tempaddr;\n\n   for (uint i = 0; i < numPositions; i++){\n      if (posPlayer[players[i]] == _rightPosition)\n        continue;\n      for (uint q = 0; q < numWinners; q++){\n        tempaddr = addrPosition[_rightPosition][q];\n        tempaddr.transfer(valuePlayer[players[i]] * valuePlayer[tempaddr] / sum_value);\n      }     \n    }\n  }\n}\n",
  "sourcePath": "D:\\ode\\Solidity\\Betting\\contracts\\Bet.sol",
  "compiler": {
    "name": "solc",
    "version": "0.8.10+commit.fc410830.Emscripten.clang"
  },
  "schemaVersion": "3.4.3",
  "updatedAt": "2021-11-23T17:18:41.284Z",
  "networkType": "ethereum",
  "devdoc": {
    "kind": "dev",
    "methods": {},
    "version": 1
  },
  "userdoc": {
    "kind": "user",
    "methods": {},
    "version": 1
  }
}