{
  "contractName": "Beting",
  "abi": [
    {
      "inputs": [
        {
          "internalType": "address[]",
          "name": "_owners",
          "type": "address[]"
        },
        {
          "internalType": "uint256",
          "name": "_numPositions",
          "type": "uint256"
        }
      ],
      "stateMutability": "nonpayable",
      "type": "constructor"
    },
    {
      "inputs": [
        {
          "internalType": "uint256",
          "name": "",
          "type": "uint256"
        }
      ],
      "name": "owners",
      "outputs": [
        {
          "internalType": "address",
          "name": "",
          "type": "address"
        }
      ],
      "stateMutability": "view",
      "type": "function"
    }
  ],
  "bytecode": "0x608060405234801561001057600080fd5b50604051610653380380610653833981810160405281019061003291906102ee565b6000825111610076576040517f08c379a000000000000000000000000000000000000000000000000000000000815260040161006d906103a7565b60405180910390fd5b600081118015610087575081518111155b6100c6576040517f08c379a00000000000000000000000000000000000000000000000000000000081526004016100bd90610413565b60405180910390fd5b60005b82518110156100e55780806100dd90610462565b9150506100c9565b5050506104ab565b6000604051905090565b600080fd5b600080fd5b600080fd5b6000601f19601f8301169050919050565b7f4e487b7100000000000000000000000000000000000000000000000000000000600052604160045260246000fd5b61014f82610106565b810181811067ffffffffffffffff8211171561016e5761016d610117565b5b80604052505050565b60006101816100ed565b905061018d8282610146565b919050565b600067ffffffffffffffff8211156101ad576101ac610117565b5b602082029050602081019050919050565b600080fd5b600073ffffffffffffffffffffffffffffffffffffffff82169050919050565b60006101ee826101c3565b9050919050565b6101fe816101e3565b811461020957600080fd5b50565b60008151905061021b816101f5565b92915050565b600061023461022f84610192565b610177565b90508083825260208201905060208402830185811115610257576102566101be565b5b835b81811015610280578061026c888261020c565b845260208401935050602081019050610259565b5050509392505050565b600082601f83011261029f5761029e610101565b5b81516102af848260208601610221565b91505092915050565b6000819050919050565b6102cb816102b8565b81146102d657600080fd5b50565b6000815190506102e8816102c2565b92915050565b60008060408385031215610305576103046100f7565b5b600083015167ffffffffffffffff811115610323576103226100fc565b5b61032f8582860161028a565b9250506020610340858286016102d9565b9150509250929050565b600082825260208201905092915050565b7f4f776e6572732065727175697265640000000000000000000000000000000000600082015250565b6000610391600f8361034a565b915061039c8261035b565b602082019050919050565b600060208201905081810360008301526103c081610384565b9050919050565b7f496e76616c6964206e756d626572206f6620706f736974696f6e730000000000600082015250565b60006103fd601b8361034a565b9150610408826103c7565b602082019050919050565b6000602082019050818103600083015261042c816103f0565b9050919050565b7f4e487b7100000000000000000000000000000000000000000000000000000000600052601160045260246000fd5b600061046d826102b8565b91507fffffffffffffffffffffffffffffffffffffffffffffffffffffffffffffffff8214156104a05761049f610433565b5b600182019050919050565b610199806104ba6000396000f3fe608060405234801561001057600080fd5b506004361061002b5760003560e01c8063025e7c2714610030575b600080fd5b61004a600480360381019061004591906100da565b610060565b6040516100579190610148565b60405180910390f35b6000818154811061007057600080fd5b906000526020600020016000915054906101000a900473ffffffffffffffffffffffffffffffffffffffff1681565b600080fd5b6000819050919050565b6100b7816100a4565b81146100c257600080fd5b50565b6000813590506100d4816100ae565b92915050565b6000602082840312156100f0576100ef61009f565b5b60006100fe848285016100c5565b91505092915050565b600073ffffffffffffffffffffffffffffffffffffffff82169050919050565b600061013282610107565b9050919050565b61014281610127565b82525050565b600060208201905061015d6000830184610139565b9291505056fea2646970667358221220097d624121e00aacd23f3590f45b20ed0941f8c44524ae8ebecafa309f8d1d8c64736f6c634300080a0033",
  "immutableReferences": {},
  "source": "// SPDX-License-Identifier: MIT\npragma solidity >=0.4.22 <0.9.0;\n\ncontract Beting {\n  address[] public owners;\n  mapping(address => bool) isOwner;\n\n\n\n  constructor(address[] memory _owners, uint _numPositions) public {\n    require(_owners.length > 0, \"Owners erquired\");\n    require(_numPositions > 0 && _numPositions <= _owners.length, \n      \"Invalid number of positions\");\n    for (uint i = 0; i < _owners.length; i++){\n\n    }\n  }\n}\n",
  "sourcePath": "D:\\ode\\Solidity\\TrffleLearning\\contracts\\Bet.sol",
  "compiler": {
    "name": "solc",
    "version": "0.8.10+commit.fc410830.Emscripten.clang"
  },
  "schemaVersion": "3.4.3",
  "updatedAt": "2021-11-21T15:09:26.766Z",
  "devdoc": {
    "kind": "dev",
    "methods": {},
    "version": 1
  },
  "userdoc": {
    "kind": "user",
    "methods": {},
    "version": 1
  }
}